{
  "address": "0x0B284782Da8835cE7f35C40e1A8Bac20893fA744",
  "abi": [
    {
      "inputs": [],
      "stateMutability": "nonpayable",
      "type": "constructor"
    },
    {
      "inputs": [
        {
          "internalType": "address",
          "name": "owner",
          "type": "address"
        }
      ],
      "name": "OwnableInvalidOwner",
      "type": "error"
    },
    {
      "inputs": [
        {
          "internalType": "address",
          "name": "account",
          "type": "address"
        }
      ],
      "name": "OwnableUnauthorizedAccount",
      "type": "error"
    },
    {
      "anonymous": false,
      "inputs": [
        {
          "indexed": true,
          "internalType": "uint256",
          "name": "tokenId",
          "type": "uint256"
        },
        {
          "indexed": true,
          "internalType": "address",
          "name": "student",
          "type": "address"
        }
      ],
      "name": "CertificateApproved",
      "type": "event"
    },
    {
      "anonymous": false,
      "inputs": [
        {
          "indexed": true,
          "internalType": "uint256",
          "name": "tokenId",
          "type": "uint256"
        },
        {
          "indexed": true,
          "internalType": "address",
          "name": "student",
          "type": "address"
        },
        {
          "indexed": false,
          "internalType": "string",
          "name": "universityName",
          "type": "string"
        }
      ],
      "name": "CertificateIssued",
      "type": "event"
    },
    {
      "anonymous": false,
      "inputs": [
        {
          "indexed": true,
          "internalType": "uint256",
          "name": "tokenId",
          "type": "uint256"
        }
      ],
      "name": "CertificateRevoked",
      "type": "event"
    },
    {
      "anonymous": false,
      "inputs": [
        {
          "indexed": true,
          "internalType": "uint256",
          "name": "tokenId",
          "type": "uint256"
        }
      ],
      "name": "CertificateUpdated",
      "type": "event"
    },
    {
      "anonymous": false,
      "inputs": [
        {
          "indexed": true,
          "internalType": "address",
          "name": "previousOwner",
          "type": "address"
        },
        {
          "indexed": true,
          "internalType": "address",
          "name": "newOwner",
          "type": "address"
        }
      ],
      "name": "OwnershipTransferred",
      "type": "event"
    },
    {
      "inputs": [
        {
          "internalType": "uint256",
          "name": "tokenId",
          "type": "uint256"
        }
      ],
      "name": "approveCertificate",
      "outputs": [],
      "stateMutability": "nonpayable",
      "type": "function"
    },
    {
      "inputs": [
        {
          "internalType": "uint256",
          "name": "tokenId",
          "type": "uint256"
        }
      ],
      "name": "getCertificate",
      "outputs": [
        {
          "internalType": "string",
          "name": "studentName",
          "type": "string"
        },
        {
          "internalType": "string",
          "name": "universityName",
          "type": "string"
        },
        {
          "internalType": "uint256",
          "name": "yearOfGraduation",
          "type": "uint256"
        },
        {
          "internalType": "string",
          "name": "degree",
          "type": "string"
        },
        {
          "internalType": "string",
          "name": "major",
          "type": "string"
        },
        {
          "internalType": "string[]",
          "name": "skills",
          "type": "string[]"
        },
        {
          "internalType": "string",
          "name": "documentURI",
          "type": "string"
        },
        {
          "internalType": "bool",
          "name": "isApproved",
          "type": "bool"
        },
        {
          "internalType": "bool",
          "name": "isRevoked",
          "type": "bool"
        }
      ],
      "stateMutability": "view",
      "type": "function"
    },
    {
      "inputs": [
        {
          "internalType": "address",
          "name": "student",
          "type": "address"
        }
      ],
      "name": "getCertificatesByStudent",
      "outputs": [
        {
          "internalType": "uint256[]",
          "name": "",
          "type": "uint256[]"
        }
      ],
      "stateMutability": "view",
      "type": "function"
    },
    {
      "inputs": [],
      "name": "getTotalCertificates",
      "outputs": [
        {
          "internalType": "uint256",
          "name": "",
          "type": "uint256"
        }
      ],
      "stateMutability": "view",
      "type": "function"
    },
    {
      "inputs": [
        {
          "internalType": "address",
          "name": "student",
          "type": "address"
        },
        {
          "internalType": "string",
          "name": "studentName",
          "type": "string"
        },
        {
          "internalType": "string",
          "name": "universityName",
          "type": "string"
        },
        {
          "internalType": "uint256",
          "name": "yearOfGraduation",
          "type": "uint256"
        },
        {
          "internalType": "string",
          "name": "degree",
          "type": "string"
        },
        {
          "internalType": "string",
          "name": "major",
          "type": "string"
        },
        {
          "internalType": "string[]",
          "name": "skills",
          "type": "string[]"
        },
        {
          "internalType": "string",
          "name": "documentURI",
          "type": "string"
        }
      ],
      "name": "issueCertificate",
      "outputs": [
        {
          "internalType": "uint256",
          "name": "",
          "type": "uint256"
        }
      ],
      "stateMutability": "nonpayable",
      "type": "function"
    },
    {
      "inputs": [],
      "name": "owner",
      "outputs": [
        {
          "internalType": "address",
          "name": "",
          "type": "address"
        }
      ],
      "stateMutability": "view",
      "type": "function"
    },
    {
      "inputs": [],
      "name": "renounceOwnership",
      "outputs": [],
      "stateMutability": "nonpayable",
      "type": "function"
    },
    {
      "inputs": [
        {
          "internalType": "uint256",
          "name": "tokenId",
          "type": "uint256"
        }
      ],
      "name": "revokeCertificate",
      "outputs": [],
      "stateMutability": "nonpayable",
      "type": "function"
    },
    {
      "inputs": [
        {
          "internalType": "address",
          "name": "newOwner",
          "type": "address"
        }
      ],
      "name": "transferOwnership",
      "outputs": [],
      "stateMutability": "nonpayable",
      "type": "function"
    },
    {
      "inputs": [
        {
          "internalType": "uint256",
          "name": "tokenId",
          "type": "uint256"
        },
        {
          "internalType": "string",
          "name": "studentName",
          "type": "string"
        },
        {
          "internalType": "string",
          "name": "universityName",
          "type": "string"
        },
        {
          "internalType": "uint256",
          "name": "yearOfGraduation",
          "type": "uint256"
        },
        {
          "internalType": "string",
          "name": "degree",
          "type": "string"
        },
        {
          "internalType": "string",
          "name": "major",
          "type": "string"
        },
        {
          "internalType": "string[]",
          "name": "skills",
          "type": "string[]"
        },
        {
          "internalType": "string",
          "name": "documentURI",
          "type": "string"
        }
      ],
      "name": "updateCertificate",
      "outputs": [],
      "stateMutability": "nonpayable",
      "type": "function"
    }
  ],
  "transactionHash": "0x10e27339d8b58cf47c818cd11a248d8450d866bc26b3a7c4cf806e5721d18aef",
  "args": [],
  "numDeployments": 1,
  "solcInputHash": "52f99d1f039a1d63043ae38e49627c3d",
  "bytecode": "0x608060405234801561001057600080fd5b50338061003757604051631e4fbdf760e01b81526000600482015260240160405180910390fd5b61004081610046565b50610096565b600080546001600160a01b038381166001600160a01b0319831681178455604051919092169283917f8be0079c531659141344cd1fd0a4f28419497f9722a3daafe3b4186f6b6457e09190a35050565b611510806100a56000396000f3fe608060405234801561001057600080fd5b506004361061009e5760003560e01c8063ea09251811610066578063ea0925181461011e578063f12fabfd1461013e578063f2fde38b14610151578063f402556814610164578063feb77cbd1461017757600080fd5b806306f5497e146100a357806351640fee146100b8578063715018a6146100e95780637843bb79146100f15780638da5cb5b14610103575b600080fd5b6100b66100b1366004610eba565b61018a565b005b6100cb6100c6366004610eba565b6102a7565b6040516100e099989796959493929190610f19565b60405180910390f35b6100b6610719565b6001545b6040519081526020016100e0565b6000546040516001600160a01b0390911681526020016100e0565b61013161012c36600461101d565b61072d565b6040516100e0919061103f565b6100f561014c3660046111d9565b610799565b6100b661015f36600461101d565b61093e565b6100b6610172366004610eba565b61097c565b6100b66101853660046112ea565b610add565b610192610cc6565b60008181526002602052604090206007015460ff166101f85760405162461bcd60e51b815260206004820152601860248201527f4365727469666963617465206e6f7420617070726f766564000000000000000060448201526064015b60405180910390fd5b600081815260026020526040902060070154610100900460ff161561025f5760405162461bcd60e51b815260206004820152601b60248201527f436572746966696361746520616c7265616479207265766f6b6564000000000060448201526064016101ef565b600081815260026020526040808220600701805461ff0019166101001790555182917fefa6c5f47ac2523bb4db18032377bf7fdce0fa9d86eddcae1ca9bba38be615d791a250565b60608060006060806060806000806000600260008c8152602001908152602001600020604051806101200160405290816000820180546102e690611326565b80601f016020809104026020016040519081016040528092919081815260200182805461031290611326565b801561035f5780601f106103345761010080835404028352916020019161035f565b820191906000526020600020905b81548152906001019060200180831161034257829003601f168201915b5050505050815260200160018201805461037890611326565b80601f01602080910402602001604051908101604052809291908181526020018280546103a490611326565b80156103f15780601f106103c6576101008083540402835291602001916103f1565b820191906000526020600020905b8154815290600101906020018083116103d457829003601f168201915b505050505081526020016002820154815260200160038201805461041490611326565b80601f016020809104026020016040519081016040528092919081815260200182805461044090611326565b801561048d5780601f106104625761010080835404028352916020019161048d565b820191906000526020600020905b81548152906001019060200180831161047057829003601f168201915b505050505081526020016004820180546104a690611326565b80601f01602080910402602001604051908101604052809291908181526020018280546104d290611326565b801561051f5780601f106104f45761010080835404028352916020019161051f565b820191906000526020600020905b81548152906001019060200180831161050257829003601f168201915b5050505050815260200160058201805480602002602001604051908101604052809291908181526020016000905b828210156105f957838290600052602060002001805461056c90611326565b80601f016020809104026020016040519081016040528092919081815260200182805461059890611326565b80156105e55780601f106105ba576101008083540402835291602001916105e5565b820191906000526020600020905b8154815290600101906020018083116105c857829003601f168201915b50505050508152602001906001019061054d565b50505050815260200160068201805461061190611326565b80601f016020809104026020016040519081016040528092919081815260200182805461063d90611326565b801561068a5780601f1061065f5761010080835404028352916020019161068a565b820191906000526020600020905b81548152906001019060200180831161066d57829003601f168201915b505050505081526020016007820160009054906101000a900460ff161515151581526020016007820160019054906101000a900460ff1615151515815250509050806000015181602001518260400151836060015184608001518560a001518660c001518760e00151886101000151995099509950995099509950995099509950509193959799909294969850565b610721610cc6565b61072b6000610cf3565b565b6001600160a01b03811660009081526003602090815260409182902080548351818402810184019094528084526060939283018282801561078d57602002820191906000526020600020905b815481526020019060010190808311610779575b50505050509050919050565b60006107a3610cc6565b60018060008282546107b59190611376565b909155505060015460408051610120810182528a815260208082018b90528183018a9052606082018990526080820188905260a0820187905260c08201869052600060e0830181905261010083018190528481526002909152919091208151819061082090826113d8565b506020820151600182019061083590826113d8565b50604082015160028201556060820151600382019061085490826113d8565b506080820151600482019061086990826113d8565b5060a08201518051610885916005840191602090910190610dfd565b5060c0820151600682019061089a90826113d8565b5060e082015160079190910180546101009384015161ffff1990911692151561ff001916929092179115159092021790556001600160a01b038a166000818152600360209081526040808320805460018101825590845291909220018390555182907fb7ff6cbe8f0282bf405f9ce3210be62c5620d39139a49186436e3f0fcc6a315a90610929908c90611498565b60405180910390a39998505050505050505050565b610946610cc6565b6001600160a01b03811661097057604051631e4fbdf760e01b8152600060048201526024016101ef565b61097981610cf3565b50565b6109863382610d43565b6109d25760405162461bcd60e51b815260206004820152601e60248201527f596f7520646f6e2774206f776e2074686973206365727469666963617465000060448201526064016101ef565b60008181526002602052604090206007015460ff1615610a345760405162461bcd60e51b815260206004820152601c60248201527f436572746966696361746520616c726561647920617070726f7665640000000060448201526064016101ef565b600081815260026020526040902060070154610100900460ff1615610a945760405162461bcd60e51b815260206004820152601660248201527510d95c9d1a599a58d85d19481a5cc81c995d9bdad95960521b60448201526064016101ef565b600081815260026020526040808220600701805460ff1916600117905551339183917f1ffd4b0c43de7f13bb9e8c45b1b35af572231837bf8a3c876e9eaf96a3cbd3d99190a350565b610ae5610cc6565b600088815260026020526040902060070154610100900460ff1615610b455760405162461bcd60e51b815260206004820152601660248201527510d95c9d1a599a58d85d19481a5cc81c995d9bdad95960521b60448201526064016101ef565b60008881526002602052604090206007015460ff1615610b8257600088815260026020526040902060068101610b7b83826113d8565b5050610c91565b60408051610120810182528881526020808201899052818301889052606082018790526080820186905260a0820185905260c08201849052600060e0830181905261010083018190528b815260029091529190912081518190610be590826113d8565b5060208201516001820190610bfa90826113d8565b506040820151600282015560608201516003820190610c1990826113d8565b5060808201516004820190610c2e90826113d8565b5060a08201518051610c4a916005840191602090910190610dfd565b5060c08201516006820190610c5f90826113d8565b5060e082015160079190910180546101009384015161ffff1990911692151561ff001916929092179115159092021790555b60405188907f9a100d2018161ede6ca34c8007992b09bbffc636a636014a922e4c875041262890600090a25050505050505050565b6000546001600160a01b0316331461072b5760405163118cdaa760e01b81523360048201526024016101ef565b600080546001600160a01b038381166001600160a01b0319831681178455604051919092169283917f8be0079c531659141344cd1fd0a4f28419497f9722a3daafe3b4186f6b6457e09190a35050565b6001600160a01b038216600090815260036020908152604080832080548251818502810185019093528083528493830182828015610da057602002820191906000526020600020905b815481526020019060010190808311610d8c575b5050505050905060005b8151811015610df05783828281518110610dc657610dc66114ab565b602002602001015103610dde57600192505050610df7565b80610de8816114c1565b915050610daa565b5060009150505b92915050565b828054828255906000526020600020908101928215610e43579160200282015b82811115610e435782518290610e3390826113d8565b5091602001919060010190610e1d565b50610e4f929150610e53565b5090565b80821115610e4f576000610e678282610e70565b50600101610e53565b508054610e7c90611326565b6000825580601f10610e8c575050565b601f01602090049060005260206000209081019061097991905b80821115610e4f5760008155600101610ea6565b600060208284031215610ecc57600080fd5b5035919050565b6000815180845260005b81811015610ef957602081850181015186830182015201610edd565b506000602082860101526020601f19601f83011685010191505092915050565b6000610120808352610f2d8184018d610ed3565b9050602083820381850152610f42828d610ed3565b91508a60408501528382036060850152610f5c828b610ed3565b91508382036080850152610f70828a610ed3565b915083820360a08501528188518084528284019150828160051b850101838b0160005b83811015610fc157601f19878403018552610faf838351610ed3565b94860194925090850190600101610f93565b505086810360c0880152610fd5818b610ed3565b95505050505050610fea60e083018515159052565b8215156101008301529a9950505050505050505050565b80356001600160a01b038116811461101857600080fd5b919050565b60006020828403121561102f57600080fd5b61103882611001565b9392505050565b6020808252825182820181905260009190848201906040850190845b818110156110775783518352928401929184019160010161105b565b50909695505050505050565b634e487b7160e01b600052604160045260246000fd5b604051601f8201601f1916810167ffffffffffffffff811182821017156110c2576110c2611083565b604052919050565b600082601f8301126110db57600080fd5b813567ffffffffffffffff8111156110f5576110f5611083565b611108601f8201601f1916602001611099565b81815284602083860101111561111d57600080fd5b816020850160208301376000918101602001919091529392505050565b600082601f83011261114b57600080fd5b8135602067ffffffffffffffff8083111561116857611168611083565b8260051b611177838201611099565b938452858101830193838101908886111561119157600080fd5b84880192505b858310156111cd578235848111156111af5760008081fd5b6111bd8a87838c01016110ca565b8352509184019190840190611197565b98975050505050505050565b600080600080600080600080610100898b0312156111f657600080fd5b6111ff89611001565b9750602089013567ffffffffffffffff8082111561121c57600080fd5b6112288c838d016110ca565b985060408b013591508082111561123e57600080fd5b61124a8c838d016110ca565b975060608b0135965060808b013591508082111561126757600080fd5b6112738c838d016110ca565b955060a08b013591508082111561128957600080fd5b6112958c838d016110ca565b945060c08b01359150808211156112ab57600080fd5b6112b78c838d0161113a565b935060e08b01359150808211156112cd57600080fd5b506112da8b828c016110ca565b9150509295985092959890939650565b600080600080600080600080610100898b03121561130757600080fd5b88359750602089013567ffffffffffffffff8082111561121c57600080fd5b600181811c9082168061133a57607f821691505b60208210810361135a57634e487b7160e01b600052602260045260246000fd5b50919050565b634e487b7160e01b600052601160045260246000fd5b80820180821115610df757610df7611360565b601f8211156113d357600081815260208120601f850160051c810160208610156113b05750805b601f850160051c820191505b818110156113cf578281556001016113bc565b5050505b505050565b815167ffffffffffffffff8111156113f2576113f2611083565b611406816114008454611326565b84611389565b602080601f83116001811461143b57600084156114235750858301515b600019600386901b1c1916600185901b1785556113cf565b600085815260208120601f198616915b8281101561146a5788860151825594840194600190910190840161144b565b50858210156114885787850151600019600388901b60f8161c191681555b5050505050600190811b01905550565b6020815260006110386020830184610ed3565b634e487b7160e01b600052603260045260246000fd5b6000600182016114d3576114d3611360565b506001019056fea26469706673582212207a81ddfdd371ef2dedd39232ccab2ecfa3c4147b8c17b5460ae539458bd71d9964736f6c63430008140033",
  "devdoc": {
    "author": "Scaffold-ETH 2",
    "details": "A contract for issuing non-transferable (soulbound) educational certificates as tokens",
    "errors": {
      "OwnableInvalidOwner(address)": [
        {
          "details": "The owner is not a valid owner account. (eg. `address(0)`)"
        }
      ],
      "OwnableUnauthorizedAccount(address)": [
        {
          "details": "The caller account is not authorized to perform an operation."
        }
      ]
    },
    "kind": "dev",
    "methods": {
      "approveCertificate(uint256)": {
        "details": "Allows a student to approve their certificate",
        "params": {
          "tokenId": "The ID of the certificate to approve"
        }
      },
      "getCertificatesByStudent(address)": {
        "details": "Gets all certificates owned by a student",
        "params": {
          "student": "The address of the student"
        },
        "returns": {
          "_0": "An array of token IDs"
        }
      },
      "getTotalCertificates()": {
        "details": "Gets the total number of certificates issued",
        "returns": {
          "_0": "The total number of certificates"
        }
      },
      "issueCertificate(address,string,string,uint256,string,string,string[],string)": {
        "details": "Issues a new certificate to a student",
        "params": {
          "degree": "The degree obtained",
          "documentURI": "The IPFS URI of the certificate document",
          "major": "The major subject",
          "skills": "Array of skills acquired",
          "student": "The address of the student",
          "studentName": "The name of the student",
          "universityName": "The name of the issuing university",
          "yearOfGraduation": "The year of graduation"
        },
        "returns": {
          "_0": "The ID of the newly issued certificate"
        }
      },
      "owner()": {
        "details": "Returns the address of the current owner."
      },
      "renounceOwnership()": {
        "details": "Leaves the contract without owner. It will not be possible to call `onlyOwner` functions. Can only be called by the current owner. NOTE: Renouncing ownership will leave the contract without an owner, thereby disabling any functionality that is only available to the owner."
      },
      "revokeCertificate(uint256)": {
        "details": "Allows the contract owner to revoke a certificate",
        "params": {
          "tokenId": "The ID of the certificate to revoke"
        }
      },
      "transferOwnership(address)": {
        "details": "Transfers ownership of the contract to a new account (`newOwner`). Can only be called by the current owner."
      },
      "updateCertificate(uint256,string,string,uint256,string,string,string[],string)": {
        "details": "Updates the certificate data",
        "params": {
          "degree": "The updated degree obtained",
          "documentURI": "The updated IPFS URI of the certificate document",
          "major": "The updated major subject",
          "skills": "The updated array of skills acquired",
          "studentName": "The updated name of the student",
          "tokenId": "The ID of the certificate to update",
          "universityName": "The updated name of the issuing university",
          "yearOfGraduation": "The updated year of graduation"
        }
      }
    },
    "title": "Certificate",
    "version": 1
  },
  "userdoc": {
    "kind": "user",
    "methods": {},
    "version": 1
  },
  "storageLayout": {
    "storage": [
      {
        "astId": 8,
        "contract": "contracts/Certificate.sol:Certificate",
        "label": "_owner",
        "offset": 0,
        "slot": "0",
        "type": "t_address"
      },
      {
        "astId": 5170,
        "contract": "contracts/Certificate.sol:Certificate",
        "label": "_tokenIds",
        "offset": 0,
        "slot": "1",
        "type": "t_uint256"
      },
      {
        "astId": 5195,
        "contract": "contracts/Certificate.sol:Certificate",
        "label": "_certificates",
        "offset": 0,
        "slot": "2",
        "type": "t_mapping(t_uint256,t_struct(CertificateData)5190_storage)"
      },
      {
        "astId": 5200,
        "contract": "contracts/Certificate.sol:Certificate",
        "label": "_studentCertificates",
        "offset": 0,
        "slot": "3",
        "type": "t_mapping(t_address,t_array(t_uint256)dyn_storage)"
      }
    ],
    "types": {
      "t_address": {
        "encoding": "inplace",
        "label": "address",
        "numberOfBytes": "20"
      },
      "t_array(t_string_storage)dyn_storage": {
        "base": "t_string_storage",
        "encoding": "dynamic_array",
        "label": "string[]",
        "numberOfBytes": "32"
      },
      "t_array(t_uint256)dyn_storage": {
        "base": "t_uint256",
        "encoding": "dynamic_array",
        "label": "uint256[]",
        "numberOfBytes": "32"
      },
      "t_bool": {
        "encoding": "inplace",
        "label": "bool",
        "numberOfBytes": "1"
      },
      "t_mapping(t_address,t_array(t_uint256)dyn_storage)": {
        "encoding": "mapping",
        "key": "t_address",
        "label": "mapping(address => uint256[])",
        "numberOfBytes": "32",
        "value": "t_array(t_uint256)dyn_storage"
      },
      "t_mapping(t_uint256,t_struct(CertificateData)5190_storage)": {
        "encoding": "mapping",
        "key": "t_uint256",
        "label": "mapping(uint256 => struct Certificate.CertificateData)",
        "numberOfBytes": "32",
        "value": "t_struct(CertificateData)5190_storage"
      },
      "t_string_storage": {
        "encoding": "bytes",
        "label": "string",
        "numberOfBytes": "32"
      },
      "t_struct(CertificateData)5190_storage": {
        "encoding": "inplace",
        "label": "struct Certificate.CertificateData",
        "members": [
          {
            "astId": 5172,
            "contract": "contracts/Certificate.sol:Certificate",
            "label": "studentName",
            "offset": 0,
            "slot": "0",
            "type": "t_string_storage"
          },
          {
            "astId": 5174,
            "contract": "contracts/Certificate.sol:Certificate",
            "label": "universityName",
            "offset": 0,
            "slot": "1",
            "type": "t_string_storage"
          },
          {
            "astId": 5176,
            "contract": "contracts/Certificate.sol:Certificate",
            "label": "yearOfGraduation",
            "offset": 0,
            "slot": "2",
            "type": "t_uint256"
          },
          {
            "astId": 5178,
            "contract": "contracts/Certificate.sol:Certificate",
            "label": "degree",
            "offset": 0,
            "slot": "3",
            "type": "t_string_storage"
          },
          {
            "astId": 5180,
            "contract": "contracts/Certificate.sol:Certificate",
            "label": "major",
            "offset": 0,
            "slot": "4",
            "type": "t_string_storage"
          },
          {
            "astId": 5183,
            "contract": "contracts/Certificate.sol:Certificate",
            "label": "skills",
            "offset": 0,
            "slot": "5",
            "type": "t_array(t_string_storage)dyn_storage"
          },
          {
            "astId": 5185,
            "contract": "contracts/Certificate.sol:Certificate",
            "label": "documentURI",
            "offset": 0,
            "slot": "6",
            "type": "t_string_storage"
          },
          {
            "astId": 5187,
            "contract": "contracts/Certificate.sol:Certificate",
            "label": "isApproved",
            "offset": 0,
            "slot": "7",
            "type": "t_bool"
          },
          {
            "astId": 5189,
            "contract": "contracts/Certificate.sol:Certificate",
            "label": "isRevoked",
            "offset": 1,
            "slot": "7",
            "type": "t_bool"
          }
        ],
        "numberOfBytes": "256"
      },
      "t_uint256": {
        "encoding": "inplace",
        "label": "uint256",
        "numberOfBytes": "32"
      }
    }
  }
}